{
  "_format": "hh-sol-artifact-1",
  "contractName": "LotteryVRFConsumer",
  "sourceName": "src/backend/contracts/LotteryVRFConsumer.sol",
  "abi": [
    {
      "inputs": [
        {
          "internalType": "uint64",
          "name": "_subscriptionId",
          "type": "uint64"
        }
      ],
      "stateMutability": "nonpayable",
      "type": "constructor"
    },
    {
      "inputs": [
        {
          "internalType": "address",
          "name": "have",
          "type": "address"
        },
        {
          "internalType": "address",
          "name": "want",
          "type": "address"
        }
      ],
      "name": "OnlyCoordinatorCanFulfill",
      "type": "error"
    },
    {
      "inputs": [],
      "name": "lotteryManagement",
      "outputs": [
        {
          "internalType": "contract LotteryManagement",
          "name": "",
          "type": "address"
        }
      ],
      "stateMutability": "view",
      "type": "function"
    },
    {
      "inputs": [
        {
          "internalType": "uint256",
          "name": "requestId",
          "type": "uint256"
        },
        {
          "internalType": "uint256[]",
          "name": "randomWords",
          "type": "uint256[]"
        }
      ],
      "name": "rawFulfillRandomWords",
      "outputs": [],
      "stateMutability": "nonpayable",
      "type": "function"
    },
    {
      "inputs": [
        {
          "internalType": "uint256",
          "name": "",
          "type": "uint256"
        }
      ],
      "name": "requestIdToLottery",
      "outputs": [
        {
          "internalType": "uint256",
          "name": "",
          "type": "uint256"
        }
      ],
      "stateMutability": "view",
      "type": "function"
    },
    {
      "inputs": [
        {
          "internalType": "uint256",
          "name": "",
          "type": "uint256"
        },
        {
          "internalType": "uint256",
          "name": "",
          "type": "uint256"
        }
      ],
      "name": "requestIdToRandomWords",
      "outputs": [
        {
          "internalType": "uint256",
          "name": "",
          "type": "uint256"
        }
      ],
      "stateMutability": "view",
      "type": "function"
    },
    {
      "inputs": [
        {
          "internalType": "uint256",
          "name": "lotteryId",
          "type": "uint256"
        }
      ],
      "name": "requestRandomPlayerIndex",
      "outputs": [
        {
          "internalType": "uint256",
          "name": "",
          "type": "uint256"
        }
      ],
      "stateMutability": "nonpayable",
      "type": "function"
    },
    {
      "inputs": [
        {
          "internalType": "contract LotteryManagement",
          "name": "_lotteryManagement",
          "type": "address"
        }
      ],
      "name": "setLotteryManagement",
      "outputs": [],
      "stateMutability": "nonpayable",
      "type": "function"
    }
  ],
  "bytecode": "0x60a0604052736168499c0cffcacd319c818142124b7a15e857ab600160006101000a81548173ffffffffffffffffffffffffffffffffffffffff021916908373ffffffffffffffffffffffffffffffffffffffff1602179055507fd89b2bf150e3b9e13446986e571fb9cab24b13cea0a43ea20a6049a85cc807cc60001b600255620493e0600360006101000a81548163ffffffff021916908363ffffffff16021790555060038060046101000a81548161ffff021916908361ffff1602179055506002600360066101000a81548163ffffffff021916908363ffffffff1602179055503480156100ef57600080fd5b50604051610e5d380380610e5d83398181016040528101906101119190610253565b600160009054906101000a900473ffffffffffffffffffffffffffffffffffffffff168073ffffffffffffffffffffffffffffffffffffffff1660808173ffffffffffffffffffffffffffffffffffffffff1660601b8152505050600160009054906101000a900473ffffffffffffffffffffffffffffffffffffffff166000806101000a81548173ffffffffffffffffffffffffffffffffffffffff021916908373ffffffffffffffffffffffffffffffffffffffff160217905550336003600a6101000a81548173ffffffffffffffffffffffffffffffffffffffff021916908373ffffffffffffffffffffffffffffffffffffffff16021790555080600060146101000a81548167ffffffffffffffff021916908367ffffffffffffffff160217905550506102a7565b60008151905061024d81610290565b92915050565b60006020828403121561026557600080fd5b60006102738482850161023e565b91505092915050565b600067ffffffffffffffff82169050919050565b6102998161027c565b81146102a457600080fd5b50565b60805160601c610b916102cc6000396000818161019301526101e70152610b916000f3fe608060405234801561001057600080fd5b50600436106100625760003560e01c806316f969ba146100675780631fe543e3146100835780632581697f1461009f5780635870de27146100bd5780638bffa1f8146100ed578063cb05d3b51461011d575b600080fd5b610081600480360381019061007c91906106cb565b61014d565b005b61009d60048036038101906100989190610746565b610191565b005b6100a7610251565b6040516100b491906108de565b60405180910390f35b6100d760048036038101906100d291906106f4565b610277565b6040516100e49190610919565b60405180910390f35b6101076004803603810190610102919061079a565b61042e565b6040516101149190610919565b60405180910390f35b610137600480360381019061013291906106f4565b61045f565b6040516101449190610919565b60405180910390f35b80600460006101000a81548173ffffffffffffffffffffffffffffffffffffffff021916908373ffffffffffffffffffffffffffffffffffffffff16021790555050565b7f000000000000000000000000000000000000000000000000000000000000000073ffffffffffffffffffffffffffffffffffffffff163373ffffffffffffffffffffffffffffffffffffffff161461024357337f00000000000000000000000000000000000000000000000000000000000000006040517f1cf993f400000000000000000000000000000000000000000000000000000000815260040161023a929190610862565b60405180910390fd5b61024d8282610477565b5050565b600460009054906101000a900473ffffffffffffffffffffffffffffffffffffffff1681565b6000600460009054906101000a900473ffffffffffffffffffffffffffffffffffffffff1673ffffffffffffffffffffffffffffffffffffffff163373ffffffffffffffffffffffffffffffffffffffff1614610309576040517f08c379a0000000000000000000000000000000000000000000000000000000008152600401610300906108f9565b60405180910390fd5b60008060009054906101000a900473ffffffffffffffffffffffffffffffffffffffff1673ffffffffffffffffffffffffffffffffffffffff16635d3b1d30600254600060149054906101000a900467ffffffffffffffff16600360049054906101000a900461ffff16600360009054906101000a900463ffffffff16600360069054906101000a900463ffffffff166040518663ffffffff1660e01b81526004016103b995949392919061088b565b602060405180830381600087803b1580156103d357600080fd5b505af11580156103e7573d6000803e3d6000fd5b505050506040513d601f19601f8201168201806040525081019061040b919061071d565b905082600660008381526020019081526020016000208190555080915050919050565b6005602052816000526040600020818154811061044a57600080fd5b90600052602060002001600091509150505481565b60066020528060005260406000206000915090505481565b8060056000848152602001908152602001600020908051906020019061049e92919061058c565b50600060066000848152602001908152602001600020549050600460009054906101000a900473ffffffffffffffffffffffffffffffffffffffff1673ffffffffffffffffffffffffffffffffffffffff1663ba8ef3b38360008151811061052f577f4e487b7100000000000000000000000000000000000000000000000000000000600052603260045260246000fd5b6020026020010151836040518363ffffffff1660e01b8152600401610555929190610934565b600060405180830381600087803b15801561056f57600080fd5b505af1158015610583573d6000803e3d6000fd5b50505050505050565b8280548282559060005260206000209081019282156105c8579160200282015b828111156105c75782518255916020019190600101906105ac565b5b5090506105d591906105d9565b5090565b5b808211156105f25760008160009055506001016105da565b5090565b600061060961060484610982565b61095d565b9050808382526020820190508285602086028201111561062857600080fd5b60005b85811015610658578161063e88826106a1565b84526020840193506020830192505060018101905061062b565b5050509392505050565b600082601f83011261067357600080fd5b81356106838482602086016105f6565b91505092915050565b60008135905061069b81610b2d565b92915050565b6000813590506106b081610b44565b92915050565b6000815190506106c581610b44565b92915050565b6000602082840312156106dd57600080fd5b60006106eb8482850161068c565b91505092915050565b60006020828403121561070657600080fd5b6000610714848285016106a1565b91505092915050565b60006020828403121561072f57600080fd5b600061073d848285016106b6565b91505092915050565b6000806040838503121561075957600080fd5b6000610767858286016106a1565b925050602083013567ffffffffffffffff81111561078457600080fd5b61079085828601610662565b9150509250929050565b600080604083850312156107ad57600080fd5b60006107bb858286016106a1565b92505060206107cc858286016106a1565b9150509250929050565b6107df816109bf565b82525050565b6107ee816109d1565b82525050565b6107fd81610a49565b82525050565b60006108106032836109ae565b915061081b82610ade565b604082019050919050565b61082f816109ed565b82525050565b61083e81610a1b565b82525050565b61084d81610a25565b82525050565b61085c81610a35565b82525050565b600060408201905061087760008301856107d6565b61088460208301846107d6565b9392505050565b600060a0820190506108a060008301886107e5565b6108ad6020830187610853565b6108ba6040830186610826565b6108c76060830185610844565b6108d46080830184610844565b9695505050505050565b60006020820190506108f360008301846107f4565b92915050565b6000602082019050818103600083015261091281610803565b9050919050565b600060208201905061092e6000830184610835565b92915050565b60006040820190506109496000830185610835565b6109566020830184610835565b9392505050565b6000610967610978565b90506109738282610a6d565b919050565b6000604051905090565b600067ffffffffffffffff82111561099d5761099c610a9e565b5b602082029050602081019050919050565b600082825260208201905092915050565b60006109ca826109fb565b9050919050565b6000819050919050565b60006109e6826109bf565b9050919050565b600061ffff82169050919050565b600073ffffffffffffffffffffffffffffffffffffffff82169050919050565b6000819050919050565b600063ffffffff82169050919050565b600067ffffffffffffffff82169050919050565b6000610a5482610a5b565b9050919050565b6000610a66826109fb565b9050919050565b610a7682610acd565b810181811067ffffffffffffffff82111715610a9557610a94610a9e565b5b80604052505050565b7f4e487b7100000000000000000000000000000000000000000000000000000000600052604160045260246000fd5b6000601f19601f8301169050919050565b7f4f6e6c79206c6f7474657279206d616e6167656d656e742063616e207265717560008201527f6573742072616e646f6d206e756d626572210000000000000000000000000000602082015250565b610b36816109db565b8114610b4157600080fd5b50565b610b4d81610a1b565b8114610b5857600080fd5b5056fea2646970667358221220d06c823fb7b60dc6e54feebc83d5e8caaa5297e86edec2537acfd8a709742d4464736f6c63430008040033",
  "linkReferences": {},
  "deployedLinkReferences": {}
}