{
  "_format": "hh-sol-artifact-1",
  "contractName": "LotteryManagement",
  "sourceName": "src/backend/contracts/LotteryManagement.sol",
  "abi": [
    {
      "inputs": [
        {
          "internalType": "contract NFT",
          "name": "_nft",
          "type": "address"
        },
        {
          "internalType": "contract LotteryVRFConsumer",
          "name": "_vrfLotteryConsumer",
          "type": "address"
        }
      ],
      "stateMutability": "nonpayable",
      "type": "constructor"
    },
    {
      "inputs": [],
      "name": "OnlySimulatedBackend",
      "type": "error"
    },
    {
      "anonymous": false,
      "inputs": [
        {
          "indexed": false,
          "internalType": "uint256",
          "name": "lotteryId",
          "type": "uint256"
        },
        {
          "indexed": false,
          "internalType": "address",
          "name": "winner",
          "type": "address"
        }
      ],
      "name": "LotteryWinnerChoosed",
      "type": "event"
    },
    {
      "anonymous": false,
      "inputs": [
        {
          "indexed": false,
          "internalType": "uint256",
          "name": "lotteryId",
          "type": "uint256"
        },
        {
          "indexed": false,
          "internalType": "uint256",
          "name": "tokenId",
          "type": "uint256"
        },
        {
          "indexed": false,
          "internalType": "uint256",
          "name": "ticketPrice",
          "type": "uint256"
        },
        {
          "indexed": false,
          "internalType": "uint256",
          "name": "startTime",
          "type": "uint256"
        },
        {
          "indexed": false,
          "internalType": "uint256",
          "name": "endTime",
          "type": "uint256"
        }
      ],
      "name": "NewLotteryCreated",
      "type": "event"
    },
    {
      "anonymous": false,
      "inputs": [
        {
          "indexed": false,
          "internalType": "uint256",
          "name": "lotteryId",
          "type": "uint256"
        },
        {
          "indexed": false,
          "internalType": "address",
          "name": "buyer",
          "type": "address"
        }
      ],
      "name": "TicketBought",
      "type": "event"
    },
    {
      "inputs": [
        {
          "internalType": "uint256",
          "name": "lotteryId",
          "type": "uint256"
        }
      ],
      "name": "buyTicket",
      "outputs": [],
      "stateMutability": "payable",
      "type": "function"
    },
    {
      "inputs": [
        {
          "internalType": "uint256",
          "name": "randomNumber",
          "type": "uint256"
        },
        {
          "internalType": "uint256",
          "name": "lotteryId",
          "type": "uint256"
        }
      ],
      "name": "callbackSetWinner",
      "outputs": [],
      "stateMutability": "nonpayable",
      "type": "function"
    },
    {
      "inputs": [
        {
          "internalType": "bytes",
          "name": "",
          "type": "bytes"
        }
      ],
      "name": "checkUpkeep",
      "outputs": [
        {
          "internalType": "bool",
          "name": "upkeepNeeded",
          "type": "bool"
        },
        {
          "internalType": "bytes",
          "name": "performData",
          "type": "bytes"
        }
      ],
      "stateMutability": "view",
      "type": "function"
    },
    {
      "inputs": [
        {
          "internalType": "uint256",
          "name": "_tokenId",
          "type": "uint256"
        },
        {
          "internalType": "uint256",
          "name": "_ticketPrice",
          "type": "uint256"
        },
        {
          "internalType": "uint256",
          "name": "_startTime",
          "type": "uint256"
        },
        {
          "internalType": "uint256",
          "name": "_endTime",
          "type": "uint256"
        }
      ],
      "name": "createNewLottery",
      "outputs": [],
      "stateMutability": "nonpayable",
      "type": "function"
    },
    {
      "inputs": [
        {
          "internalType": "uint256",
          "name": "lotteryId",
          "type": "uint256"
        }
      ],
      "name": "getLottery",
      "outputs": [
        {
          "components": [
            {
              "internalType": "uint256",
              "name": "lotteryId",
              "type": "uint256"
            },
            {
              "internalType": "uint256",
              "name": "tokenId",
              "type": "uint256"
            },
            {
              "internalType": "uint256",
              "name": "ticketPrice",
              "type": "uint256"
            },
            {
              "internalType": "uint256",
              "name": "startTime",
              "type": "uint256"
            },
            {
              "internalType": "uint256",
              "name": "endTime",
              "type": "uint256"
            },
            {
              "internalType": "enum LotteryManagement.LotteryState",
              "name": "state",
              "type": "uint8"
            },
            {
              "internalType": "uint256",
              "name": "vrfRequestId",
              "type": "uint256"
            },
            {
              "internalType": "address[]",
              "name": "players",
              "type": "address[]"
            },
            {
              "internalType": "address",
              "name": "winner",
              "type": "address"
            }
          ],
          "internalType": "struct LotteryManagement.LotteryItem",
          "name": "",
          "type": "tuple"
        }
      ],
      "stateMutability": "view",
      "type": "function"
    },
    {
      "inputs": [
        {
          "internalType": "uint256",
          "name": "lotteryId",
          "type": "uint256"
        }
      ],
      "name": "getPlayers",
      "outputs": [
        {
          "internalType": "address[]",
          "name": "",
          "type": "address[]"
        }
      ],
      "stateMutability": "view",
      "type": "function"
    },
    {
      "inputs": [
        {
          "internalType": "uint256",
          "name": "",
          "type": "uint256"
        }
      ],
      "name": "listLotteries",
      "outputs": [
        {
          "internalType": "uint256",
          "name": "lotteryId",
          "type": "uint256"
        },
        {
          "internalType": "uint256",
          "name": "tokenId",
          "type": "uint256"
        },
        {
          "internalType": "uint256",
          "name": "ticketPrice",
          "type": "uint256"
        },
        {
          "internalType": "uint256",
          "name": "startTime",
          "type": "uint256"
        },
        {
          "internalType": "uint256",
          "name": "endTime",
          "type": "uint256"
        },
        {
          "internalType": "enum LotteryManagement.LotteryState",
          "name": "state",
          "type": "uint8"
        },
        {
          "internalType": "uint256",
          "name": "vrfRequestId",
          "type": "uint256"
        },
        {
          "internalType": "address",
          "name": "winner",
          "type": "address"
        }
      ],
      "stateMutability": "view",
      "type": "function"
    },
    {
      "inputs": [
        {
          "internalType": "uint256",
          "name": "",
          "type": "uint256"
        },
        {
          "internalType": "address",
          "name": "",
          "type": "address"
        }
      ],
      "name": "lotteryBuyers",
      "outputs": [
        {
          "internalType": "bool",
          "name": "",
          "type": "bool"
        }
      ],
      "stateMutability": "view",
      "type": "function"
    },
    {
      "inputs": [],
      "name": "owner",
      "outputs": [
        {
          "internalType": "address payable",
          "name": "",
          "type": "address"
        }
      ],
      "stateMutability": "view",
      "type": "function"
    },
    {
      "inputs": [
        {
          "internalType": "bytes",
          "name": "performData",
          "type": "bytes"
        }
      ],
      "name": "performUpkeep",
      "outputs": [],
      "stateMutability": "nonpayable",
      "type": "function"
    },
    {
      "inputs": [],
      "name": "totalLottery",
      "outputs": [
        {
          "internalType": "uint256",
          "name": "",
          "type": "uint256"
        }
      ],
      "stateMutability": "view",
      "type": "function"
    },
    {
      "inputs": [
        {
          "internalType": "uint256",
          "name": "lotteryId",
          "type": "uint256"
        }
      ],
      "name": "withdrawNFT",
      "outputs": [],
      "stateMutability": "nonpayable",
      "type": "function"
    }
  ],
  "bytecode": "0x60806040523480156200001157600080fd5b50604051620026f8380380620026f8833981810160405281019062000037919062000130565b33600160006101000a81548173ffffffffffffffffffffffffffffffffffffffff021916908373ffffffffffffffffffffffffffffffffffffffff16021790555081600260006101000a81548173ffffffffffffffffffffffffffffffffffffffff021916908373ffffffffffffffffffffffffffffffffffffffff16021790555080600360006101000a81548173ffffffffffffffffffffffffffffffffffffffff021916908373ffffffffffffffffffffffffffffffffffffffff160217905550505062000201565b6000815190506200011381620001cd565b92915050565b6000815190506200012a81620001e7565b92915050565b600080604083850312156200014457600080fd5b6000620001548582860162000119565b9250506020620001678582860162000102565b9150509250929050565b60006200017e82620001ad565b9050919050565b6000620001928262000171565b9050919050565b6000620001a68262000171565b9050919050565b600073ffffffffffffffffffffffffffffffffffffffff82169050919050565b620001d88162000185565b8114620001e457600080fd5b50565b620001f28162000199565b8114620001fe57600080fd5b50565b6124e780620002116000396000f3fe6080604052600436106100a75760003560e01c80638da5cb5b116100645780638da5cb5b146101be57806392e845f6146101e9578063ba8ef3b314610226578063d5c6c5cc1461024f578063eaff3cc71461027a578063fd2ab83b146102be576100a7565b8063023245d7146100ac578063340c7657146100d55780634585e33b146100fe578063460e20491461012757806367dd74ca146101645780636e04ff0d14610180575b600080fd5b3480156100b857600080fd5b506100d360048036038101906100ce919061185d565b6102fb565b005b3480156100e157600080fd5b506100fc60048036038101906100f79190611927565b61069e565b005b34801561010a57600080fd5b5061012560048036038101906101209190611818565b610b42565b005b34801561013357600080fd5b5061014e6004803603810190610149919061185d565b610b63565b60405161015b9190611d61565b60405180910390f35b61017e6004803603810190610179919061185d565b610c07565b005b34801561018c57600080fd5b506101a760048036038101906101a29190611818565b610f2b565b6040516101b5929190611d9e565b60405180910390f35b3480156101ca57600080fd5b506101d361104f565b6040516101e09190611d0f565b60405180910390f35b3480156101f557600080fd5b50610210600480360381019061020b919061185d565b611075565b60405161021d9190611eee565b60405180910390f35b34801561023257600080fd5b5061024d600480360381019061024891906118eb565b61124a565b005b34801561025b57600080fd5b50610264611414565b6040516102719190611f10565b60405180910390f35b34801561028657600080fd5b506102a1600480360381019061029c919061185d565b611425565b6040516102b5989796959493929190611fa7565b60405180910390f35b3480156102ca57600080fd5b506102e560048036038101906102e091906118af565b61149a565b6040516102f29190611d83565b60405180910390f35b8060016002811115610336577f4e487b7100000000000000000000000000000000000000000000000000000000600052602160045260246000fd5b6004600083815260200190815260200160002060050160009054906101000a900460ff166002811115610392577f4e487b7100000000000000000000000000000000000000000000000000000000600052602160045260246000fd5b11156103d3576040517f08c379a00000000000000000000000000000000000000000000000000000000081526004016103ca90611e2e565b60405180910390fd5b6000600460008481526020019081526020016000209050600073ffffffffffffffffffffffffffffffffffffffff168160080160009054906101000a900473ffffffffffffffffffffffffffffffffffffffff1673ffffffffffffffffffffffffffffffffffffffff161415801561049a57503373ffffffffffffffffffffffffffffffffffffffff168160080160009054906101000a900473ffffffffffffffffffffffffffffffffffffffff1673ffffffffffffffffffffffffffffffffffffffff16145b8061054e5750600073ffffffffffffffffffffffffffffffffffffffff168160080160009054906101000a900473ffffffffffffffffffffffffffffffffffffffff1673ffffffffffffffffffffffffffffffffffffffff1614801561054d5750600160009054906101000a900473ffffffffffffffffffffffffffffffffffffffff1673ffffffffffffffffffffffffffffffffffffffff163373ffffffffffffffffffffffffffffffffffffffff16145b5b61058d576040517f08c379a000000000000000000000000000000000000000000000000000000000815260040161058490611dce565b60405180910390fd5b600260009054906101000a900473ffffffffffffffffffffffffffffffffffffffff1673ffffffffffffffffffffffffffffffffffffffff166323b872dd308360080160009054906101000a900473ffffffffffffffffffffffffffffffffffffffff1684600101546040518463ffffffff1660e01b815260040161061493929190611d2a565b600060405180830381600087803b15801561062e57600080fd5b505af1158015610642573d6000803e3d6000fd5b5050505060028160050160006101000a81548160ff02191690836002811115610694577f4e487b7100000000000000000000000000000000000000000000000000000000600052602160045260246000fd5b0217905550505050565b3373ffffffffffffffffffffffffffffffffffffffff16600160009054906101000a900473ffffffffffffffffffffffffffffffffffffffff1673ffffffffffffffffffffffffffffffffffffffff161461072e576040517f08c379a000000000000000000000000000000000000000000000000000000000815260040161072590611e6e565b60405180910390fd5b3373ffffffffffffffffffffffffffffffffffffffff16600260009054906101000a900473ffffffffffffffffffffffffffffffffffffffff1673ffffffffffffffffffffffffffffffffffffffff16636352211e866040518263ffffffff1660e01b81526004016107a09190611f10565b60206040518083038186803b1580156107b857600080fd5b505afa1580156107cc573d6000803e3d6000fd5b505050506040513d601f19601f820116820180604052508101906107f091906117ef565b73ffffffffffffffffffffffffffffffffffffffff1614610846576040517f08c379a000000000000000000000000000000000000000000000000000000000815260040161083d90611e0e565b60405180910390fd5b61085060006114c9565b600061085c60006114df565b9050604051806101200160405280828152602001868152602001858152602001848152602001838152602001600060028111156108c2577f4e487b7100000000000000000000000000000000000000000000000000000000600052602160045260246000fd5b815260200160008152602001600067ffffffffffffffff81111561090f577f4e487b7100000000000000000000000000000000000000000000000000000000600052604160045260246000fd5b60405190808252806020026020018201604052801561093d5781602001602082028036833780820191505090505b508152602001600073ffffffffffffffffffffffffffffffffffffffff1681525060046000838152602001908152602001600020600082015181600001556020820151816001015560408201518160020155606082015181600301556080820151816004015560a08201518160050160006101000a81548160ff021916908360028111156109f4577f4e487b7100000000000000000000000000000000000000000000000000000000600052602160045260246000fd5b021790555060c0820151816006015560e0820151816007019080519060200190610a1f929190611610565b506101008201518160080160006101000a81548173ffffffffffffffffffffffffffffffffffffffff021916908373ffffffffffffffffffffffffffffffffffffffff160217905550905050600260009054906101000a900473ffffffffffffffffffffffffffffffffffffffff1673ffffffffffffffffffffffffffffffffffffffff166323b872dd3330886040518463ffffffff1660e01b8152600401610aca93929190611d2a565b600060405180830381600087803b158015610ae457600080fd5b505af1158015610af8573d6000803e3d6000fd5b505050507f2cece4b24bfd36efda5325bc44b761fa31d016c6c1e3bd782c93c93b93785af68186868686604051610b33959493929190611f54565b60405180910390a15050505050565b60008282810190610b53919061185d565b9050610b5e816114ed565b505050565b606060046000838152602001908152602001600020600701805480602002602001604051908101604052809291908181526020018280548015610bfb57602002820191906000526020600020905b8160009054906101000a900473ffffffffffffffffffffffffffffffffffffffff1673ffffffffffffffffffffffffffffffffffffffff1681526020019060010190808311610bb1575b50505050509050919050565b804260046000838152602001908152602001600020600301541115610c61576040517f08c379a0000000000000000000000000000000000000000000000000000000008152600401610c5890611e8e565b60405180910390fd5b4260046000838152602001908152602001600020600401541015610cba576040517f08c379a0000000000000000000000000000000000000000000000000000000008152600401610cb190611e4e565b60405180910390fd5b6005600083815260200190815260200160002060003373ffffffffffffffffffffffffffffffffffffffff1673ffffffffffffffffffffffffffffffffffffffff16815260200190815260200160002060009054906101000a900460ff1615610d58576040517f08c379a0000000000000000000000000000000000000000000000000000000008152600401610d4f90611ece565b60405180910390fd5b60006004600084815260200190815260200160002090508060020154341015610db6576040517f08c379a0000000000000000000000000000000000000000000000000000000008152600401610dad90611eae565b60405180910390fd5b80600701339080600181540180825580915050600190039060005260206000200160009091909190916101000a81548173ffffffffffffffffffffffffffffffffffffffff021916908373ffffffffffffffffffffffffffffffffffffffff160217905550600160009054906101000a900473ffffffffffffffffffffffffffffffffffffffff1673ffffffffffffffffffffffffffffffffffffffff166108fc349081150290604051600060405180830381858888f19350505050158015610e83573d6000803e3d6000fd5b5060016005600085815260200190815260200160002060003373ffffffffffffffffffffffffffffffffffffffff1673ffffffffffffffffffffffffffffffffffffffff16815260200190815260200160002060006101000a81548160ff0219169083151502179055507f6606e4c8a88792ed4fd5159f9be235ca78e87fc1cbdc6158ea92d3ed3be9bf728333604051610f1e929190611f2b565b60405180910390a1505050565b600060606000610f3b60006114df565b90506000600190505b8181116110465760006002811115610f85577f4e487b7100000000000000000000000000000000000000000000000000000000600052602160045260246000fd5b6004600083815260200190815260200160002060050160009054906101000a900460ff166002811115610fe1577f4e487b7100000000000000000000000000000000000000000000000000000000600052602160045260246000fd5b1480156110035750426004600083815260200190815260200160002060040154105b1561103357600193508060405160200161101d9190611f10565b6040516020818303038152906040529250611046565b808061103e9061214e565b915050610f44565b50509250929050565b600160009054906101000a900473ffffffffffffffffffffffffffffffffffffffff1681565b61107d61169a565b600460008381526020019081526020016000206040518061012001604052908160008201548152602001600182015481526020016002820154815260200160038201548152602001600482015481526020016005820160009054906101000a900460ff166002811115611119577f4e487b7100000000000000000000000000000000000000000000000000000000600052602160045260246000fd5b6002811115611151577f4e487b7100000000000000000000000000000000000000000000000000000000600052602160045260246000fd5b815260200160068201548152602001600782018054806020026020016040519081016040528092919081815260200182805480156111e457602002820191906000526020600020905b8160009054906101000a900473ffffffffffffffffffffffffffffffffffffffff1673ffffffffffffffffffffffffffffffffffffffff168152602001906001019080831161119a575b505050505081526020016008820160009054906101000a900473ffffffffffffffffffffffffffffffffffffffff1673ffffffffffffffffffffffffffffffffffffffff1673ffffffffffffffffffffffffffffffffffffffff16815250509050919050565b600360009054906101000a900473ffffffffffffffffffffffffffffffffffffffff1673ffffffffffffffffffffffffffffffffffffffff163373ffffffffffffffffffffffffffffffffffffffff16146112da576040517f08c379a00000000000000000000000000000000000000000000000000000000081526004016112d190611dee565b60405180910390fd5b600060046000838152602001908152602001600020905060008160070180549050846113069190612197565b9050816007018181548110611344577f4e487b7100000000000000000000000000000000000000000000000000000000600052603260045260246000fd5b9060005260206000200160009054906101000a900473ffffffffffffffffffffffffffffffffffffffff168260080160006101000a81548173ffffffffffffffffffffffffffffffffffffffff021916908373ffffffffffffffffffffffffffffffffffffffff1602179055507f8300df8ba373456e93ac3d78d6709aeacd49a75cd1cb2767b66b0f2751c3eb81838360080160009054906101000a900473ffffffffffffffffffffffffffffffffffffffff16604051611406929190611f2b565b60405180910390a150505050565b600061142060006114df565b905090565b60046020528060005260406000206000915090508060000154908060010154908060020154908060030154908060040154908060050160009054906101000a900460ff16908060060154908060080160009054906101000a900473ffffffffffffffffffffffffffffffffffffffff16905088565b60056020528160005260406000206020528060005260406000206000915091509054906101000a900460ff1681565b6001816000016000828254019250508190555050565b600081600001549050919050565b6000600460008381526020019081526020016000209050600360009054906101000a900473ffffffffffffffffffffffffffffffffffffffff1673ffffffffffffffffffffffffffffffffffffffff16635870de27836040518263ffffffff1660e01b815260040161155f9190611f10565b602060405180830381600087803b15801561157957600080fd5b505af115801561158d573d6000803e3d6000fd5b505050506040513d601f19601f820116820180604052508101906115b19190611886565b816006018190555060018160050160006101000a81548160ff02191690836002811115611607577f4e487b7100000000000000000000000000000000000000000000000000000000600052602160045260246000fd5b02179055505050565b828054828255906000526020600020908101928215611689579160200282015b828111156116885782518260006101000a81548173ffffffffffffffffffffffffffffffffffffffff021916908373ffffffffffffffffffffffffffffffffffffffff16021790555091602001919060010190611630565b5b5090506116969190611734565b5090565b604051806101200160405280600081526020016000815260200160008152602001600081526020016000815260200160006002811115611703577f4e487b7100000000000000000000000000000000000000000000000000000000600052602160045260246000fd5b81526020016000815260200160608152602001600073ffffffffffffffffffffffffffffffffffffffff1681525090565b5b8082111561174d576000816000905550600101611735565b5090565b60008135905061176081612483565b92915050565b60008151905061177581612483565b92915050565b60008083601f84011261178d57600080fd5b8235905067ffffffffffffffff8111156117a657600080fd5b6020830191508360018202830111156117be57600080fd5b9250929050565b6000813590506117d48161249a565b92915050565b6000815190506117e98161249a565b92915050565b60006020828403121561180157600080fd5b600061180f84828501611766565b91505092915050565b6000806020838503121561182b57600080fd5b600083013567ffffffffffffffff81111561184557600080fd5b6118518582860161177b565b92509250509250929050565b60006020828403121561186f57600080fd5b600061187d848285016117c5565b91505092915050565b60006020828403121561189857600080fd5b60006118a6848285016117da565b91505092915050565b600080604083850312156118c257600080fd5b60006118d0858286016117c5565b92505060206118e185828601611751565b9150509250929050565b600080604083850312156118fe57600080fd5b600061190c858286016117c5565b925050602061191d858286016117c5565b9150509250929050565b6000806000806080858703121561193d57600080fd5b600061194b878288016117c5565b945050602061195c878288016117c5565b935050604061196d878288016117c5565b925050606061197e878288016117c5565b91505092959194509250565b600061199683836119b1565b60208301905092915050565b6119ab816120ae565b82525050565b6119ba8161209c565b82525050565b6119c98161209c565b82525050565b60006119da82612035565b6119e48185612058565b93506119ef83612025565b8060005b83811015611a20578151611a07888261198a565b9750611a128361204b565b9250506001810190506119f3565b5085935050505092915050565b6000611a3882612035565b611a428185612069565b9350611a4d83612025565b8060005b83811015611a7e578151611a65888261198a565b9750611a708361204b565b925050600181019050611a51565b5085935050505092915050565b611a94816120c0565b82525050565b6000611aa582612040565b611aaf818561207a565b9350611abf81856020860161211b565b611ac881612255565b840191505092915050565b611adc81612109565b82525050565b611aeb81612109565b82525050565b6000611afe60358361208b565b9150611b0982612266565b604082019050919050565b6000611b21602b8361208b565b9150611b2c826122b5565b604082019050919050565b6000611b4460138361208b565b9150611b4f82612304565b602082019050919050565b6000611b6760218361208b565b9150611b728261232d565b604082019050919050565b6000611b8a60118361208b565b9150611b958261237c565b602082019050919050565b6000611bad600b8361208b565b9150611bb8826123a5565b602082019050919050565b6000611bd0601c8361208b565b9150611bdb826123ce565b602082019050919050565b6000611bf3601d8361208b565b9150611bfe826123f7565b602082019050919050565b6000611c1660278361208b565b9150611c2182612420565b604082019050919050565b600061012083016000830151611c456000860182611cf1565b506020830151611c586020860182611cf1565b506040830151611c6b6040860182611cf1565b506060830151611c7e6060860182611cf1565b506080830151611c916080860182611cf1565b5060a0830151611ca460a0860182611ad3565b5060c0830151611cb760c0860182611cf1565b5060e083015184820360e0860152611ccf82826119cf565b915050610100830151611ce66101008601826119b1565b508091505092915050565b611cfa816120ff565b82525050565b611d09816120ff565b82525050565b6000602082019050611d2460008301846119a2565b92915050565b6000606082019050611d3f60008301866119c0565b611d4c60208301856119c0565b611d596040830184611d00565b949350505050565b60006020820190508181036000830152611d7b8184611a2d565b905092915050565b6000602082019050611d986000830184611a8b565b92915050565b6000604082019050611db36000830185611a8b565b8181036020830152611dc58184611a9a565b90509392505050565b60006020820190508181036000830152611de781611af1565b9050919050565b60006020820190508181036000830152611e0781611b14565b9050919050565b60006020820190508181036000830152611e2781611b37565b9050919050565b60006020820190508181036000830152611e4781611b5a565b9050919050565b60006020820190508181036000830152611e6781611b7d565b9050919050565b60006020820190508181036000830152611e8781611ba0565b9050919050565b60006020820190508181036000830152611ea781611bc3565b9050919050565b60006020820190508181036000830152611ec781611be6565b9050919050565b60006020820190508181036000830152611ee781611c09565b9050919050565b60006020820190508181036000830152611f088184611c2c565b905092915050565b6000602082019050611f256000830184611d00565b92915050565b6000604082019050611f406000830185611d00565b611f4d60208301846119c0565b9392505050565b600060a082019050611f696000830188611d00565b611f766020830187611d00565b611f836040830186611d00565b611f906060830185611d00565b611f9d6080830184611d00565b9695505050505050565b600061010082019050611fbd600083018b611d00565b611fca602083018a611d00565b611fd76040830189611d00565b611fe46060830188611d00565b611ff16080830187611d00565b611ffe60a0830186611ae2565b61200b60c0830185611d00565b61201860e08301846119c0565b9998505050505050505050565b6000819050602082019050919050565b600081519050919050565b600081519050919050565b6000602082019050919050565b600082825260208201905092915050565b600082825260208201905092915050565b600082825260208201905092915050565b600082825260208201905092915050565b60006120a7826120df565b9050919050565b60006120b9826120df565b9050919050565b60008115159050919050565b60008190506120da8261246f565b919050565b600073ffffffffffffffffffffffffffffffffffffffff82169050919050565b6000819050919050565b6000612114826120cc565b9050919050565b60005b8381101561213957808201518184015260208101905061211e565b83811115612148576000848401525b50505050565b6000612159826120ff565b91507fffffffffffffffffffffffffffffffffffffffffffffffffffffffffffffffff82141561218c5761218b6121c8565b5b600182019050919050565b60006121a2826120ff565b91506121ad836120ff565b9250826121bd576121bc6121f7565b5b828206905092915050565b7f4e487b7100000000000000000000000000000000000000000000000000000000600052601160045260246000fd5b7f4e487b7100000000000000000000000000000000000000000000000000000000600052601260045260246000fd5b7f4e487b7100000000000000000000000000000000000000000000000000000000600052602160045260246000fd5b6000601f19601f8301169050919050565b7f4f6e6c792077696e6e6572206f72206f776e6572285768656e206e6f2077696e60008201527f6e6572292063616e207769746864726177204e46540000000000000000000000602082015250565b7f4f6e6c7920636f6e73756d65722063616e2063616c6c2063616c6c6261636b2060008201527f7365742077696e6e657221000000000000000000000000000000000000000000602082015250565b7f4e6f74206f776e6572206f6620746f6b656e2100000000000000000000000000600082015250565b7f546865206c6f7474657279206e6f7420696e206177617264696e67207374617460008201527f6500000000000000000000000000000000000000000000000000000000000000602082015250565b7f546865206c6f747465727920656e646564000000000000000000000000000000600082015250565b7f4f6e6c79206f776e657221000000000000000000000000000000000000000000600082015250565b7f546865206c6f7474657279206861736e27742073746172742079657400000000600082015250565b7f4e6f7420656e6f7567682045544820746f20627579207469636b657421000000600082015250565b7f5573657220616c726561647920676f74207469636b6574206f6620746869732060008201527f6c6f747465727900000000000000000000000000000000000000000000000000602082015250565b600381106124805761247f612226565b5b50565b61248c8161209c565b811461249757600080fd5b50565b6124a3816120ff565b81146124ae57600080fd5b5056fea264697066735822122051d6fcc1541d06751f5c6571d9c1230db16b68540f3262368f44924d66278cc964736f6c63430008040033",
  "linkReferences": {},
  "deployedLinkReferences": {}
}