{
  "_format": "hh-sol-artifact-1",
  "contractName": "Marketplace",
  "sourceName": "src/backend/contracts/Marketplace.sol",
  "abi": [
    {
      "inputs": [
        {
          "internalType": "uint8",
          "name": "_serviceFeePercent",
          "type": "uint8"
        },
        {
          "internalType": "uint8",
          "name": "_creatorFeePercent",
          "type": "uint8"
        }
      ],
      "stateMutability": "nonpayable",
      "type": "constructor"
    },
    {
      "anonymous": false,
      "inputs": [
        {
          "indexed": true,
          "internalType": "address",
          "name": "nft",
          "type": "address"
        },
        {
          "indexed": false,
          "internalType": "uint256",
          "name": "tokenId",
          "type": "uint256"
        },
        {
          "indexed": true,
          "internalType": "address",
          "name": "seller",
          "type": "address"
        }
      ],
      "name": "ItemDelisted",
      "type": "event"
    },
    {
      "anonymous": false,
      "inputs": [
        {
          "indexed": false,
          "internalType": "uint256",
          "name": "itemId",
          "type": "uint256"
        },
        {
          "indexed": true,
          "internalType": "address",
          "name": "nft",
          "type": "address"
        },
        {
          "indexed": false,
          "internalType": "uint256",
          "name": "tokenId",
          "type": "uint256"
        },
        {
          "indexed": false,
          "internalType": "uint256",
          "name": "price",
          "type": "uint256"
        },
        {
          "indexed": false,
          "internalType": "address",
          "name": "creator",
          "type": "address"
        },
        {
          "indexed": true,
          "internalType": "address",
          "name": "seller",
          "type": "address"
        },
        {
          "indexed": true,
          "internalType": "address",
          "name": "buyer",
          "type": "address"
        }
      ],
      "name": "NFTPurchased",
      "type": "event"
    },
    {
      "anonymous": false,
      "inputs": [
        {
          "indexed": false,
          "internalType": "uint256",
          "name": "itemId",
          "type": "uint256"
        },
        {
          "indexed": true,
          "internalType": "address",
          "name": "nft",
          "type": "address"
        },
        {
          "indexed": false,
          "internalType": "uint256",
          "name": "tokenId",
          "type": "uint256"
        },
        {
          "indexed": false,
          "internalType": "uint256",
          "name": "price",
          "type": "uint256"
        },
        {
          "indexed": true,
          "internalType": "address",
          "name": "seller",
          "type": "address"
        }
      ],
      "name": "NewNFTListed",
      "type": "event"
    },
    {
      "inputs": [],
      "name": "creatorFeePercent",
      "outputs": [
        {
          "internalType": "uint8",
          "name": "",
          "type": "uint8"
        }
      ],
      "stateMutability": "view",
      "type": "function"
    },
    {
      "inputs": [
        {
          "internalType": "uint256",
          "name": "_itemId",
          "type": "uint256"
        }
      ],
      "name": "delistItem",
      "outputs": [],
      "stateMutability": "nonpayable",
      "type": "function"
    },
    {
      "inputs": [
        {
          "internalType": "uint256",
          "name": "_itemId",
          "type": "uint256"
        }
      ],
      "name": "getFeeAndProfit",
      "outputs": [
        {
          "internalType": "uint256",
          "name": "",
          "type": "uint256"
        },
        {
          "internalType": "uint256",
          "name": "",
          "type": "uint256"
        },
        {
          "internalType": "uint256",
          "name": "",
          "type": "uint256"
        }
      ],
      "stateMutability": "view",
      "type": "function"
    },
    {
      "inputs": [],
      "name": "getListingItems",
      "outputs": [
        {
          "components": [
            {
              "internalType": "uint256",
              "name": "itemId",
              "type": "uint256"
            },
            {
              "internalType": "contract NFT",
              "name": "nft",
              "type": "address"
            },
            {
              "internalType": "uint256",
              "name": "tokenId",
              "type": "uint256"
            },
            {
              "internalType": "uint256",
              "name": "price",
              "type": "uint256"
            },
            {
              "internalType": "address payable",
              "name": "seller",
              "type": "address"
            },
            {
              "internalType": "enum Marketplace.ItemState",
              "name": "itemState",
              "type": "uint8"
            }
          ],
          "internalType": "struct Marketplace.MarketItem[]",
          "name": "",
          "type": "tuple[]"
        }
      ],
      "stateMutability": "view",
      "type": "function"
    },
    {
      "inputs": [],
      "name": "getMySellingItems",
      "outputs": [
        {
          "components": [
            {
              "internalType": "uint256",
              "name": "itemId",
              "type": "uint256"
            },
            {
              "internalType": "contract NFT",
              "name": "nft",
              "type": "address"
            },
            {
              "internalType": "uint256",
              "name": "tokenId",
              "type": "uint256"
            },
            {
              "internalType": "uint256",
              "name": "price",
              "type": "uint256"
            },
            {
              "internalType": "address payable",
              "name": "seller",
              "type": "address"
            },
            {
              "internalType": "enum Marketplace.ItemState",
              "name": "itemState",
              "type": "uint8"
            }
          ],
          "internalType": "struct Marketplace.MarketItem[]",
          "name": "",
          "type": "tuple[]"
        }
      ],
      "stateMutability": "view",
      "type": "function"
    },
    {
      "inputs": [],
      "name": "getTotalItem",
      "outputs": [
        {
          "internalType": "uint256",
          "name": "",
          "type": "uint256"
        }
      ],
      "stateMutability": "view",
      "type": "function"
    },
    {
      "inputs": [
        {
          "internalType": "contract NFT",
          "name": "_nft",
          "type": "address"
        },
        {
          "internalType": "uint256",
          "name": "_tokenId",
          "type": "uint256"
        },
        {
          "internalType": "uint256",
          "name": "_price",
          "type": "uint256"
        }
      ],
      "name": "listItem",
      "outputs": [],
      "stateMutability": "nonpayable",
      "type": "function"
    },
    {
      "inputs": [
        {
          "internalType": "uint256",
          "name": "",
          "type": "uint256"
        }
      ],
      "name": "listItems",
      "outputs": [
        {
          "internalType": "uint256",
          "name": "itemId",
          "type": "uint256"
        },
        {
          "internalType": "contract NFT",
          "name": "nft",
          "type": "address"
        },
        {
          "internalType": "uint256",
          "name": "tokenId",
          "type": "uint256"
        },
        {
          "internalType": "uint256",
          "name": "price",
          "type": "uint256"
        },
        {
          "internalType": "address payable",
          "name": "seller",
          "type": "address"
        },
        {
          "internalType": "enum Marketplace.ItemState",
          "name": "itemState",
          "type": "uint8"
        }
      ],
      "stateMutability": "view",
      "type": "function"
    },
    {
      "inputs": [],
      "name": "owner",
      "outputs": [
        {
          "internalType": "address payable",
          "name": "",
          "type": "address"
        }
      ],
      "stateMutability": "view",
      "type": "function"
    },
    {
      "inputs": [
        {
          "internalType": "uint256",
          "name": "_itemId",
          "type": "uint256"
        }
      ],
      "name": "purchaseItem",
      "outputs": [],
      "stateMutability": "payable",
      "type": "function"
    },
    {
      "inputs": [],
      "name": "serviceFeePercent",
      "outputs": [
        {
          "internalType": "uint8",
          "name": "",
          "type": "uint8"
        }
      ],
      "stateMutability": "view",
      "type": "function"
    }
  ],
  "bytecode": "0x60e06040523480156200001157600080fd5b506040516200252a3803806200252a8339818101604052810190620000379190620000b7565b60016000819055503373ffffffffffffffffffffffffffffffffffffffff1660808173ffffffffffffffffffffffffffffffffffffffff1660601b815250508160ff1660a08160ff1660f81b815250508060ff1660c08160ff1660f81b8152505050506200011f565b600081519050620000b18162000105565b92915050565b60008060408385031215620000cb57600080fd5b6000620000db85828601620000a0565b9250506020620000ee85828601620000a0565b9150509250929050565b600060ff82169050919050565b6200011081620000f8565b81146200011c57600080fd5b50565b60805160601c60a05160f81c60c05160f81c6123bd6200016d600039600081816109e40152610e4c015260008181610dba0152610df7015260008181610d9601526115d501526123bd6000f3fe60806040526004361061009c5760003560e01c80638da5cb5b116100645780638da5cb5b1461018b578063995bc51e146101b6578063ae4c6030146101e1578063b40d2fec1461020c578063bc334a301461024b578063d38ea5bf146102765761009c565b806310061631146100a157806336c47a77146100ca5780633e909fc5146100f557806353613dd31461013757806389bfd38f14610162575b600080fd5b3480156100ad57600080fd5b506100c860048036038101906100c39190611ab0565b610292565b005b3480156100d657600080fd5b506100df6105b9565b6040516100ec9190611d84565b60405180910390f35b34801561010157600080fd5b5061011c60048036038101906101179190611ab0565b610959565b60405161012e96959493929190611e81565b60405180910390f35b34801561014357600080fd5b5061014c6109e2565b6040516101599190611f5e565b60405180910390f35b34801561016e57600080fd5b5061018960048036038101906101849190611a61565b610a06565b005b34801561019757600080fd5b506101a0610d94565b6040516101ad9190611d32565b60405180910390f35b3480156101c257600080fd5b506101cb610db8565b6040516101d89190611f5e565b60405180910390f35b3480156101ed57600080fd5b506101f6610ddc565b6040516102039190611e66565b60405180910390f35b34801561021857600080fd5b50610233600480360381019061022e9190611ab0565b610ded565b60405161024293929190611ee2565b60405180910390f35b34801561025757600080fd5b50610260610edf565b60405161026d9190611d84565b60405180910390f35b610290600480360381019061028b9190611ab0565b6112a9565b005b600260005414156102d8576040517f08c379a00000000000000000000000000000000000000000000000000000000081526004016102cf90611e46565b60405180910390fd5b60026000819055506000811180156102f957506102f5600161193b565b8111155b610338576040517f08c379a000000000000000000000000000000000000000000000000000000000815260040161032f90611dc6565b60405180910390fd5b60006003600083815260200190815260200160002090503373ffffffffffffffffffffffffffffffffffffffff168160040160009054906101000a900473ffffffffffffffffffffffffffffffffffffffff1673ffffffffffffffffffffffffffffffffffffffff16146103e1576040517f08c379a00000000000000000000000000000000000000000000000000000000081526004016103d890611da6565b60405180910390fd5b8060010160009054906101000a900473ffffffffffffffffffffffffffffffffffffffff1673ffffffffffffffffffffffffffffffffffffffff166323b872dd303384600201546040518463ffffffff1660e01b815260040161044693929190611d4d565b600060405180830381600087803b15801561046057600080fd5b505af1158015610474573d6000803e3d6000fd5b5050505060018160040160146101000a81548160ff021916908360028111156104c6577f4e487b7100000000000000000000000000000000000000000000000000000000600052602160045260246000fd5b0217905550600460003373ffffffffffffffffffffffffffffffffffffffff1673ffffffffffffffffffffffffffffffffffffffff168152602001908152602001600020600081548092919061051b90612138565b91905055503373ffffffffffffffffffffffffffffffffffffffff168160010160009054906101000a900473ffffffffffffffffffffffffffffffffffffffff1673ffffffffffffffffffffffffffffffffffffffff167f8a5f25b0a324f219b1808a5482b684d7065e755da6094a5ab2f1b203bf20dfa883600201546040516105a59190611e66565b60405180910390a350600160008190555050565b606060006105c7600161193b565b90506000806105d6600261193b565b836105e1919061204e565b905060008167ffffffffffffffff811115610625577f4e487b7100000000000000000000000000000000000000000000000000000000600052604160045260246000fd5b60405190808252806020026020018201604052801561065e57816020015b61064b61195f565b8152602001906001900390816106435790505b5090506000600190505b84811161094e57600060028111156106a9577f4e487b7100000000000000000000000000000000000000000000000000000000600052602160045260246000fd5b6003600083815260200190815260200160002060040160149054906101000a900460ff166002811115610705577f4e487b7100000000000000000000000000000000000000000000000000000000600052602160045260246000fd5b14801561077457503373ffffffffffffffffffffffffffffffffffffffff166003600083815260200190815260200160002060040160009054906101000a900473ffffffffffffffffffffffffffffffffffffffff1673ffffffffffffffffffffffffffffffffffffffff1614155b1561093b57600360008281526020019081526020016000206040518060c0016040529081600082015481526020016001820160009054906101000a900473ffffffffffffffffffffffffffffffffffffffff1673ffffffffffffffffffffffffffffffffffffffff1673ffffffffffffffffffffffffffffffffffffffff16815260200160028201548152602001600382015481526020016004820160009054906101000a900473ffffffffffffffffffffffffffffffffffffffff1673ffffffffffffffffffffffffffffffffffffffff1673ffffffffffffffffffffffffffffffffffffffff1681526020016004820160149054906101000a900460ff1660028111156108ac577f4e487b7100000000000000000000000000000000000000000000000000000000600052602160045260246000fd5b60028111156108e4577f4e487b7100000000000000000000000000000000000000000000000000000000600052602160045260246000fd5b81525050828581518110610921577f4e487b7100000000000000000000000000000000000000000000000000000000600052603260045260246000fd5b6020026020010181905250838061093790612162565b9450505b808061094690612162565b915050610668565b508094505050505090565b60036020528060005260406000206000915090508060000154908060010160009054906101000a900473ffffffffffffffffffffffffffffffffffffffff16908060020154908060030154908060040160009054906101000a900473ffffffffffffffffffffffffffffffffffffffff16908060040160149054906101000a900460ff16905086565b7f000000000000000000000000000000000000000000000000000000000000000081565b60026000541415610a4c576040517f08c379a0000000000000000000000000000000000000000000000000000000008152600401610a4390611e46565b60405180910390fd5b600260008190555060008111610a97576040517f08c379a0000000000000000000000000000000000000000000000000000000008152600401610a8e90611e26565b60405180910390fd5b8273ffffffffffffffffffffffffffffffffffffffff166323b872dd3330856040518463ffffffff1660e01b8152600401610ad493929190611d4d565b600060405180830381600087803b158015610aee57600080fd5b505af1158015610b02573d6000803e3d6000fd5b50505050610b106001611949565b6000610b1c600161193b565b90506040518060c001604052808281526020018573ffffffffffffffffffffffffffffffffffffffff1681526020018481526020018381526020013373ffffffffffffffffffffffffffffffffffffffff16815260200160006002811115610bad577f4e487b7100000000000000000000000000000000000000000000000000000000600052602160045260246000fd5b815250600360008381526020019081526020016000206000820151816000015560208201518160010160006101000a81548173ffffffffffffffffffffffffffffffffffffffff021916908373ffffffffffffffffffffffffffffffffffffffff160217905550604082015181600201556060820151816003015560808201518160040160006101000a81548173ffffffffffffffffffffffffffffffffffffffff021916908373ffffffffffffffffffffffffffffffffffffffff16021790555060a08201518160040160146101000a81548160ff02191690836002811115610cc0577f4e487b7100000000000000000000000000000000000000000000000000000000600052602160045260246000fd5b0217905550905050600460003373ffffffffffffffffffffffffffffffffffffffff1673ffffffffffffffffffffffffffffffffffffffff1681526020019081526020016000206000815480929190610d1890612162565b91905055503373ffffffffffffffffffffffffffffffffffffffff168473ffffffffffffffffffffffffffffffffffffffff167f12d05d1704710e9893ee3fc9963868b9966457177053fff29863d3a7362f4c4a838686604051610d7e93929190611ee2565b60405180910390a3506001600081905550505050565b7f000000000000000000000000000000000000000000000000000000000000000081565b7f000000000000000000000000000000000000000000000000000000000000000081565b6000610de8600161193b565b905090565b60008060008060647f000000000000000000000000000000000000000000000000000000000000000060ff166003600088815260200190815260200160002060030154610e3a9190611ff4565b610e449190611fc3565b9050600060647f000000000000000000000000000000000000000000000000000000000000000060ff166003600089815260200190815260200160002060030154610e8f9190611ff4565b610e999190611fc3565b905060008183600360008a815260200190815260200160002060030154610ec0919061204e565b610eca919061204e565b90508282829550955095505050509193909250565b60606000610eed600161193b565b9050600080600460003373ffffffffffffffffffffffffffffffffffffffff1673ffffffffffffffffffffffffffffffffffffffff16815260200190815260200160002054905060008167ffffffffffffffff811115610f76577f4e487b7100000000000000000000000000000000000000000000000000000000600052604160045260246000fd5b604051908082528060200260200182016040528015610faf57816020015b610f9c61195f565b815260200190600190039081610f945790505b5090506000600190505b84811161129e5760006002811115610ffa577f4e487b7100000000000000000000000000000000000000000000000000000000600052602160045260246000fd5b6003600083815260200190815260200160002060040160149054906101000a900460ff166002811115611056577f4e487b7100000000000000000000000000000000000000000000000000000000600052602160045260246000fd5b1480156110c457503373ffffffffffffffffffffffffffffffffffffffff166003600083815260200190815260200160002060040160009054906101000a900473ffffffffffffffffffffffffffffffffffffffff1673ffffffffffffffffffffffffffffffffffffffff16145b1561128b57600360008281526020019081526020016000206040518060c0016040529081600082015481526020016001820160009054906101000a900473ffffffffffffffffffffffffffffffffffffffff1673ffffffffffffffffffffffffffffffffffffffff1673ffffffffffffffffffffffffffffffffffffffff16815260200160028201548152602001600382015481526020016004820160009054906101000a900473ffffffffffffffffffffffffffffffffffffffff1673ffffffffffffffffffffffffffffffffffffffff1673ffffffffffffffffffffffffffffffffffffffff1681526020016004820160149054906101000a900460ff1660028111156111fc577f4e487b7100000000000000000000000000000000000000000000000000000000600052602160045260246000fd5b6002811115611234577f4e487b7100000000000000000000000000000000000000000000000000000000600052602160045260246000fd5b81525050828581518110611271577f4e487b7100000000000000000000000000000000000000000000000000000000600052603260045260246000fd5b6020026020010181905250838061128790612162565b9450505b808061129690612162565b915050610fb9565b508094505050505090565b600260005414156112ef576040517f08c379a00000000000000000000000000000000000000000000000000000000081526004016112e690611e46565b60405180910390fd5b6002600081905550600081118015611310575061130c600161193b565b8111155b61134f576040517f08c379a000000000000000000000000000000000000000000000000000000000815260040161134690611dc6565b60405180910390fd5b60006003600083815260200190815260200160002090508060040160009054906101000a900473ffffffffffffffffffffffffffffffffffffffff1673ffffffffffffffffffffffffffffffffffffffff163373ffffffffffffffffffffffffffffffffffffffff1614156113f9576040517f08c379a00000000000000000000000000000000000000000000000000000000081526004016113f090611de6565b60405180910390fd5b8060030154341015611440576040517f08c379a000000000000000000000000000000000000000000000000000000000815260040161143790611e06565b60405180910390fd5b600280811115611479577f4e487b7100000000000000000000000000000000000000000000000000000000600052602160045260246000fd5b8160040160149054906101000a900460ff1660028111156114c3577f4e487b7100000000000000000000000000000000000000000000000000000000600052602160045260246000fd5b1415611504576040517f08c379a00000000000000000000000000000000000000000000000000000000081526004016114fb90611de6565b60405180910390fd5b600080600061151285610ded565b80935081945082955050505060008460010160009054906101000a900473ffffffffffffffffffffffffffffffffffffffff1673ffffffffffffffffffffffffffffffffffffffff1663d48e638a86600201546040518263ffffffff1660e01b81526004016115819190611e66565b60206040518083038186803b15801561159957600080fd5b505afa1580156115ad573d6000803e3d6000fd5b505050506040513d601f19601f820116820180604052508101906115d19190611a38565b90507f000000000000000000000000000000000000000000000000000000000000000073ffffffffffffffffffffffffffffffffffffffff166108fc859081150290604051600060405180830381858888f19350505050158015611639573d6000803e3d6000fd5b508073ffffffffffffffffffffffffffffffffffffffff166108fc849081150290604051600060405180830381858888f19350505050158015611680573d6000803e3d6000fd5b508460040160009054906101000a900473ffffffffffffffffffffffffffffffffffffffff1673ffffffffffffffffffffffffffffffffffffffff166108fc839081150290604051600060405180830381858888f193505050501580156116eb573d6000803e3d6000fd5b5060028560040160146101000a81548160ff0219169083600281111561173a577f4e487b7100000000000000000000000000000000000000000000000000000000600052602160045260246000fd5b02179055508460010160009054906101000a900473ffffffffffffffffffffffffffffffffffffffff1673ffffffffffffffffffffffffffffffffffffffff166323b872dd303388600201546040518463ffffffff1660e01b81526004016117a493929190611d4d565b600060405180830381600087803b1580156117be57600080fd5b505af11580156117d2573d6000803e3d6000fd5b505050506117e06002611949565b600460008660040160009054906101000a900473ffffffffffffffffffffffffffffffffffffffff1673ffffffffffffffffffffffffffffffffffffffff1673ffffffffffffffffffffffffffffffffffffffff168152602001908152602001600020600081548092919061185490612138565b91905055503373ffffffffffffffffffffffffffffffffffffffff168560040160009054906101000a900473ffffffffffffffffffffffffffffffffffffffff1673ffffffffffffffffffffffffffffffffffffffff168660010160009054906101000a900473ffffffffffffffffffffffffffffffffffffffff1673ffffffffffffffffffffffffffffffffffffffff167ff956dc7c80d4bd4001fc60915cfc3f819714e099e78de3b5e77b39ead765852b8989600201548a60030154876040516119239493929190611f19565b60405180910390a45050505050600160008190555050565b600081600001549050919050565b6001816000016000828254019250508190555050565b6040518060c0016040528060008152602001600073ffffffffffffffffffffffffffffffffffffffff1681526020016000815260200160008152602001600073ffffffffffffffffffffffffffffffffffffffff168152602001600060028111156119f3577f4e487b7100000000000000000000000000000000000000000000000000000000600052602160045260246000fd5b81525090565b600081519050611a0881612342565b92915050565b600081359050611a1d81612359565b92915050565b600081359050611a3281612370565b92915050565b600060208284031215611a4a57600080fd5b6000611a58848285016119f9565b91505092915050565b600080600060608486031215611a7657600080fd5b6000611a8486828701611a0e565b9350506020611a9586828701611a23565b9250506040611aa686828701611a23565b9150509250925092565b600060208284031215611ac257600080fd5b6000611ad084828501611a23565b91505092915050565b6000611ae58383611c8a565b60c08301905092915050565b611afa81612094565b82525050565b611b0981612094565b82525050565b611b1881612082565b82525050565b6000611b2982611f89565b611b338185611fa1565b9350611b3e83611f79565b8060005b83811015611b6f578151611b568882611ad9565b9750611b6183611f94565b925050600181019050611b42565b5085935050505092915050565b611b8581612102565b82525050565b611b9481612102565b82525050565b611ba381612126565b82525050565b611bb281612126565b82525050565b6000611bc5601383611fb2565b9150611bd082612238565b602082019050919050565b6000611be8601383611fb2565b9150611bf382612261565b602082019050919050565b6000611c0b601283611fb2565b9150611c168261228a565b602082019050919050565b6000611c2e601f83611fb2565b9150611c39826122b3565b602082019050919050565b6000611c51602083611fb2565b9150611c5c826122dc565b602082019050919050565b6000611c74601f83611fb2565b9150611c7f82612305565b602082019050919050565b60c082016000820151611ca06000850182611d05565b506020820151611cb36020850182611b7c565b506040820151611cc66040850182611d05565b506060820151611cd96060850182611d05565b506080820151611cec6080850182611af1565b5060a0820151611cff60a0850182611b9a565b50505050565b611d0e816120eb565b82525050565b611d1d816120eb565b82525050565b611d2c816120f5565b82525050565b6000602082019050611d476000830184611b00565b92915050565b6000606082019050611d626000830186611b0f565b611d6f6020830185611b0f565b611d7c6040830184611d14565b949350505050565b60006020820190508181036000830152611d9e8184611b1e565b905092915050565b60006020820190508181036000830152611dbf81611bb8565b9050919050565b60006020820190508181036000830152611ddf81611bdb565b9050919050565b60006020820190508181036000830152611dff81611bfe565b9050919050565b60006020820190508181036000830152611e1f81611c21565b9050919050565b60006020820190508181036000830152611e3f81611c44565b9050919050565b60006020820190508181036000830152611e5f81611c67565b9050919050565b6000602082019050611e7b6000830184611d14565b92915050565b600060c082019050611e966000830189611d14565b611ea36020830188611b8b565b611eb06040830187611d14565b611ebd6060830186611d14565b611eca6080830185611b00565b611ed760a0830184611ba9565b979650505050505050565b6000606082019050611ef76000830186611d14565b611f046020830185611d14565b611f116040830184611d14565b949350505050565b6000608082019050611f2e6000830187611d14565b611f3b6020830186611d14565b611f486040830185611d14565b611f556060830184611b0f565b95945050505050565b6000602082019050611f736000830184611d23565b92915050565b6000819050602082019050919050565b600081519050919050565b6000602082019050919050565b600082825260208201905092915050565b600082825260208201905092915050565b6000611fce826120eb565b9150611fd9836120eb565b925082611fe957611fe86121da565b5b828204905092915050565b6000611fff826120eb565b915061200a836120eb565b9250817fffffffffffffffffffffffffffffffffffffffffffffffffffffffffffffffff0483118215151615612043576120426121ab565b5b828202905092915050565b6000612059826120eb565b9150612064836120eb565b925082821015612077576120766121ab565b5b828203905092915050565b600061208d826120cb565b9050919050565b600061209f826120cb565b9050919050565b60006120b182612082565b9050919050565b60008190506120c68261232e565b919050565b600073ffffffffffffffffffffffffffffffffffffffff82169050919050565b6000819050919050565b600060ff82169050919050565b600061210d82612114565b9050919050565b600061211f826120cb565b9050919050565b6000612131826120b8565b9050919050565b6000612143826120eb565b91506000821415612157576121566121ab565b5b600182039050919050565b600061216d826120eb565b91507fffffffffffffffffffffffffffffffffffffffffffffffffffffffffffffffff8214156121a05761219f6121ab565b5b600182019050919050565b7f4e487b7100000000000000000000000000000000000000000000000000000000600052601160045260246000fd5b7f4e487b7100000000000000000000000000000000000000000000000000000000600052601260045260246000fd5b7f4e487b7100000000000000000000000000000000000000000000000000000000600052602160045260246000fd5b7f4e6f74206f776e6572206f6620746f6b656e2100000000000000000000000000600082015250565b7f4974656d20646f65736e27742065786973742e00000000000000000000000000600082015250565b7f4974656d20616c726561647920736f6c642e0000000000000000000000000000600082015250565b7f4e6f7420656e6f7567682065746820746f207075726368617365206974656d00600082015250565b7f5072696365206d7573742062652067726561746572207468616e207a657a6f21600082015250565b7f5265656e7472616e637947756172643a207265656e7472616e742063616c6c00600082015250565b6003811061233f5761233e612209565b5b50565b61234b81612082565b811461235657600080fd5b50565b612362816120a6565b811461236d57600080fd5b50565b612379816120eb565b811461238457600080fd5b5056fea2646970667358221220c8c99bb5c6b407a2438783cf33054d466a74278416b80ead854993bfd6eacccf64736f6c63430008040033",
  "linkReferences": {},
  "deployedLinkReferences": {}
}