{
  "_format": "hh-sol-artifact-1",
  "contractName": "NFT",
  "sourceName": "src/backend/contracts/NFT.sol",
  "abi": [
    {
      "inputs": [],
      "stateMutability": "nonpayable",
      "type": "constructor"
    },
    {
      "anonymous": false,
      "inputs": [
        {
          "indexed": true,
          "internalType": "address",
          "name": "owner",
          "type": "address"
        },
        {
          "indexed": true,
          "internalType": "address",
          "name": "approved",
          "type": "address"
        },
        {
          "indexed": true,
          "internalType": "uint256",
          "name": "tokenId",
          "type": "uint256"
        }
      ],
      "name": "Approval",
      "type": "event"
    },
    {
      "anonymous": false,
      "inputs": [
        {
          "indexed": true,
          "internalType": "address",
          "name": "owner",
          "type": "address"
        },
        {
          "indexed": true,
          "internalType": "address",
          "name": "operator",
          "type": "address"
        },
        {
          "indexed": false,
          "internalType": "bool",
          "name": "approved",
          "type": "bool"
        }
      ],
      "name": "ApprovalForAll",
      "type": "event"
    },
    {
      "anonymous": false,
      "inputs": [
        {
          "indexed": true,
          "internalType": "address",
          "name": "from",
          "type": "address"
        },
        {
          "indexed": true,
          "internalType": "address",
          "name": "to",
          "type": "address"
        },
        {
          "indexed": true,
          "internalType": "uint256",
          "name": "tokenId",
          "type": "uint256"
        }
      ],
      "name": "Transfer",
      "type": "event"
    },
    {
      "inputs": [
        {
          "internalType": "address",
          "name": "to",
          "type": "address"
        },
        {
          "internalType": "uint256",
          "name": "tokenId",
          "type": "uint256"
        }
      ],
      "name": "approve",
      "outputs": [],
      "stateMutability": "nonpayable",
      "type": "function"
    },
    {
      "inputs": [
        {
          "internalType": "address",
          "name": "owner",
          "type": "address"
        }
      ],
      "name": "balanceOf",
      "outputs": [
        {
          "internalType": "uint256",
          "name": "",
          "type": "uint256"
        }
      ],
      "stateMutability": "view",
      "type": "function"
    },
    {
      "inputs": [
        {
          "internalType": "uint256",
          "name": "tokenId",
          "type": "uint256"
        }
      ],
      "name": "getApproved",
      "outputs": [
        {
          "internalType": "address",
          "name": "",
          "type": "address"
        }
      ],
      "stateMutability": "view",
      "type": "function"
    },
    {
      "inputs": [
        {
          "internalType": "uint256",
          "name": "_tokenId",
          "type": "uint256"
        }
      ],
      "name": "getCreator",
      "outputs": [
        {
          "internalType": "address",
          "name": "",
          "type": "address"
        }
      ],
      "stateMutability": "view",
      "type": "function"
    },
    {
      "inputs": [],
      "name": "getCurrentTokenId",
      "outputs": [
        {
          "internalType": "uint256",
          "name": "",
          "type": "uint256"
        }
      ],
      "stateMutability": "view",
      "type": "function"
    },
    {
      "inputs": [],
      "name": "getMyTokenIds",
      "outputs": [
        {
          "internalType": "uint256[]",
          "name": "tokenIds",
          "type": "uint256[]"
        }
      ],
      "stateMutability": "view",
      "type": "function"
    },
    {
      "inputs": [
        {
          "internalType": "address",
          "name": "owner",
          "type": "address"
        },
        {
          "internalType": "address",
          "name": "operator",
          "type": "address"
        }
      ],
      "name": "isApprovedForAll",
      "outputs": [
        {
          "internalType": "bool",
          "name": "",
          "type": "bool"
        }
      ],
      "stateMutability": "view",
      "type": "function"
    },
    {
      "inputs": [
        {
          "internalType": "string",
          "name": "_tokenURI",
          "type": "string"
        }
      ],
      "name": "mint",
      "outputs": [
        {
          "internalType": "uint256",
          "name": "",
          "type": "uint256"
        }
      ],
      "stateMutability": "nonpayable",
      "type": "function"
    },
    {
      "inputs": [],
      "name": "name",
      "outputs": [
        {
          "internalType": "string",
          "name": "",
          "type": "string"
        }
      ],
      "stateMutability": "view",
      "type": "function"
    },
    {
      "inputs": [
        {
          "internalType": "uint256",
          "name": "tokenId",
          "type": "uint256"
        }
      ],
      "name": "ownerOf",
      "outputs": [
        {
          "internalType": "address",
          "name": "",
          "type": "address"
        }
      ],
      "stateMutability": "view",
      "type": "function"
    },
    {
      "inputs": [
        {
          "internalType": "address",
          "name": "from",
          "type": "address"
        },
        {
          "internalType": "address",
          "name": "to",
          "type": "address"
        },
        {
          "internalType": "uint256",
          "name": "tokenId",
          "type": "uint256"
        }
      ],
      "name": "safeTransferFrom",
      "outputs": [],
      "stateMutability": "nonpayable",
      "type": "function"
    },
    {
      "inputs": [
        {
          "internalType": "address",
          "name": "from",
          "type": "address"
        },
        {
          "internalType": "address",
          "name": "to",
          "type": "address"
        },
        {
          "internalType": "uint256",
          "name": "tokenId",
          "type": "uint256"
        },
        {
          "internalType": "bytes",
          "name": "_data",
          "type": "bytes"
        }
      ],
      "name": "safeTransferFrom",
      "outputs": [],
      "stateMutability": "nonpayable",
      "type": "function"
    },
    {
      "inputs": [
        {
          "internalType": "address",
          "name": "operator",
          "type": "address"
        },
        {
          "internalType": "bool",
          "name": "approved",
          "type": "bool"
        }
      ],
      "name": "setApprovalForAll",
      "outputs": [],
      "stateMutability": "nonpayable",
      "type": "function"
    },
    {
      "inputs": [
        {
          "internalType": "bytes4",
          "name": "interfaceId",
          "type": "bytes4"
        }
      ],
      "name": "supportsInterface",
      "outputs": [
        {
          "internalType": "bool",
          "name": "",
          "type": "bool"
        }
      ],
      "stateMutability": "view",
      "type": "function"
    },
    {
      "inputs": [],
      "name": "symbol",
      "outputs": [
        {
          "internalType": "string",
          "name": "",
          "type": "string"
        }
      ],
      "stateMutability": "view",
      "type": "function"
    },
    {
      "inputs": [
        {
          "internalType": "uint256",
          "name": "tokenId",
          "type": "uint256"
        }
      ],
      "name": "tokenURI",
      "outputs": [
        {
          "internalType": "string",
          "name": "",
          "type": "string"
        }
      ],
      "stateMutability": "view",
      "type": "function"
    },
    {
      "inputs": [
        {
          "internalType": "address",
          "name": "from",
          "type": "address"
        },
        {
          "internalType": "address",
          "name": "to",
          "type": "address"
        },
        {
          "internalType": "uint256",
          "name": "tokenId",
          "type": "uint256"
        }
      ],
      "name": "transferFrom",
      "outputs": [],
      "stateMutability": "nonpayable",
      "type": "function"
    }
  ],
  "bytecode": "0x60806040523480156200001157600080fd5b506040518060400160405280600681526020017f446174696e6700000000000000000000000000000000000000000000000000008152506040518060400160405280600381526020017f4441540000000000000000000000000000000000000000000000000000000000815250816000908051906020019062000096929190620000b8565b508060019080519060200190620000af929190620000b8565b505050620001cd565b828054620000c69062000168565b90600052602060002090601f016020900481019282620000ea576000855562000136565b82601f106200010557805160ff191683800117855562000136565b8280016001018555821562000136579182015b828111156200013557825182559160200191906001019062000118565b5b50905062000145919062000149565b5090565b5b80821115620001645760008160009055506001016200014a565b5090565b600060028204905060018216806200018157607f821691505b602082108114156200019857620001976200019e565b5b50919050565b7f4e487b7100000000000000000000000000000000000000000000000000000000600052602260045260246000fd5b612ed580620001dd6000396000f3fe608060405234801561001057600080fd5b506004361061010b5760003560e01c806370a08231116100a2578063b88d4fde11610071578063b88d4fde146102b8578063c87b56dd146102d4578063d48e638a14610304578063d85d3d2714610334578063e985e9c5146103645761010b565b806370a08231146102305780637ba0ca0d1461026057806395d89b411461027e578063a22cb4651461029c5761010b565b806323b872dd116100de57806323b872dd146101aa57806342842e0e146101c657806356189236146101e25780636352211e146102005761010b565b806301ffc9a71461011057806306fdde0314610140578063081812fc1461015e578063095ea7b31461018e575b600080fd5b61012a60048036038101906101259190611e61565b610394565b604051610137919061234f565b60405180910390f35b610148610476565b604051610155919061236a565b60405180910390f35b61017860048036038101906101739190611ef4565b610508565b60405161018591906122c6565b60405180910390f35b6101a860048036038101906101a39190611e25565b61058d565b005b6101c460048036038101906101bf9190611d1f565b6106a5565b005b6101e060048036038101906101db9190611d1f565b610705565b005b6101ea610725565b6040516101f7919061258c565b60405180910390f35b61021a60048036038101906102159190611ef4565b610736565b60405161022791906122c6565b60405180910390f35b61024a60048036038101906102459190611cba565b6107e8565b604051610257919061258c565b60405180910390f35b6102686108a0565b604051610275919061232d565b60405180910390f35b6102866109e2565b604051610293919061236a565b60405180910390f35b6102b660048036038101906102b19190611de9565b610a74565b005b6102d260048036038101906102cd9190611d6e565b610a8a565b005b6102ee60048036038101906102e99190611ef4565b610aec565b6040516102fb919061236a565b60405180910390f35b61031e60048036038101906103199190611ef4565b610c3e565b60405161032b91906122c6565b60405180910390f35b61034e60048036038101906103499190611eb3565b610c7b565b60405161035b919061258c565b60405180910390f35b61037e60048036038101906103799190611ce3565b610d04565b60405161038b919061234f565b60405180910390f35b60007f80ac58cd000000000000000000000000000000000000000000000000000000007bffffffffffffffffffffffffffffffffffffffffffffffffffffffff1916827bffffffffffffffffffffffffffffffffffffffffffffffffffffffff1916148061045f57507f5b5e139f000000000000000000000000000000000000000000000000000000007bffffffffffffffffffffffffffffffffffffffffffffffffffffffff1916827bffffffffffffffffffffffffffffffffffffffffffffffffffffffff1916145b8061046f575061046e82610d98565b5b9050919050565b6060600080546104859061281b565b80601f01602080910402602001604051908101604052809291908181526020018280546104b19061281b565b80156104fe5780601f106104d3576101008083540402835291602001916104fe565b820191906000526020600020905b8154815290600101906020018083116104e157829003601f168201915b5050505050905090565b600061051382610e02565b610552576040517f08c379a00000000000000000000000000000000000000000000000000000000081526004016105499061250c565b60405180910390fd5b6004600083815260200190815260200160002060009054906101000a900473ffffffffffffffffffffffffffffffffffffffff169050919050565b600061059882610736565b90508073ffffffffffffffffffffffffffffffffffffffff168373ffffffffffffffffffffffffffffffffffffffff161415610609576040517f08c379a00000000000000000000000000000000000000000000000000000000081526004016106009061254c565b60405180910390fd5b8073ffffffffffffffffffffffffffffffffffffffff16610628610e6e565b73ffffffffffffffffffffffffffffffffffffffff161480610657575061065681610651610e6e565b610d04565b5b610696576040517f08c379a000000000000000000000000000000000000000000000000000000000815260040161068d9061244c565b60405180910390fd5b6106a08383610e76565b505050565b6106b66106b0610e6e565b82610f2f565b6106f5576040517f08c379a00000000000000000000000000000000000000000000000000000000081526004016106ec9061256c565b60405180910390fd5b61070083838361100d565b505050565b61072083838360405180602001604052806000815250610a8a565b505050565b60006107316007611274565b905090565b6000806002600084815260200190815260200160002060009054906101000a900473ffffffffffffffffffffffffffffffffffffffff169050600073ffffffffffffffffffffffffffffffffffffffff168173ffffffffffffffffffffffffffffffffffffffff1614156107df576040517f08c379a00000000000000000000000000000000000000000000000000000000081526004016107d69061248c565b60405180910390fd5b80915050919050565b60008073ffffffffffffffffffffffffffffffffffffffff168273ffffffffffffffffffffffffffffffffffffffff161415610859576040517f08c379a00000000000000000000000000000000000000000000000000000000081526004016108509061246c565b60405180910390fd5b600360008373ffffffffffffffffffffffffffffffffffffffff1673ffffffffffffffffffffffffffffffffffffffff168152602001908152602001600020549050919050565b60606108ab336107e8565b67ffffffffffffffff8111156108ea577f4e487b7100000000000000000000000000000000000000000000000000000000600052604160045260246000fd5b6040519080825280602002602001820160405280156109185781602001602082028036833780820191505090505b5090506000806109286007611274565b90506000600190505b8181116109dc573373ffffffffffffffffffffffffffffffffffffffff1661095882610736565b73ffffffffffffffffffffffffffffffffffffffff1614156109c957808484815181106109ae577f4e487b7100000000000000000000000000000000000000000000000000000000600052603260045260246000fd5b60200260200101818152505082806109c59061287e565b9350505b80806109d49061287e565b915050610931565b50505090565b6060600180546109f19061281b565b80601f0160208091040260200160405190810160405280929190818152602001828054610a1d9061281b565b8015610a6a5780601f10610a3f57610100808354040283529160200191610a6a565b820191906000526020600020905b815481529060010190602001808311610a4d57829003601f168201915b5050505050905090565b610a86610a7f610e6e565b8383611282565b5050565b610a9b610a95610e6e565b83610f2f565b610ada576040517f08c379a0000000000000000000000000000000000000000000000000000000008152600401610ad19061256c565b60405180910390fd5b610ae6848484846113ef565b50505050565b6060610af782610e02565b610b36576040517f08c379a0000000000000000000000000000000000000000000000000000000008152600401610b2d906124ec565b60405180910390fd5b6000600660008481526020019081526020016000208054610b569061281b565b80601f0160208091040260200160405190810160405280929190818152602001828054610b829061281b565b8015610bcf5780601f10610ba457610100808354040283529160200191610bcf565b820191906000526020600020905b815481529060010190602001808311610bb257829003601f168201915b505050505090506000610be061144b565b9050600081511415610bf6578192505050610c39565b600082511115610c2b578082604051602001610c139291906122a2565b60405160208183030381529060405292505050610c39565b610c3484611462565b925050505b919050565b60006008600083815260200190815260200160002060009054906101000a900473ffffffffffffffffffffffffffffffffffffffff169050919050565b6000610c876007611509565b6000610c936007611274565b9050610c9f338261151f565b610ca981846116f9565b336008600083815260200190815260200160002060006101000a81548173ffffffffffffffffffffffffffffffffffffffff021916908373ffffffffffffffffffffffffffffffffffffffff16021790555080915050919050565b6000600560008473ffffffffffffffffffffffffffffffffffffffff1673ffffffffffffffffffffffffffffffffffffffff16815260200190815260200160002060008373ffffffffffffffffffffffffffffffffffffffff1673ffffffffffffffffffffffffffffffffffffffff16815260200190815260200160002060009054906101000a900460ff16905092915050565b60007f01ffc9a7000000000000000000000000000000000000000000000000000000007bffffffffffffffffffffffffffffffffffffffffffffffffffffffff1916827bffffffffffffffffffffffffffffffffffffffffffffffffffffffff1916149050919050565b60008073ffffffffffffffffffffffffffffffffffffffff166002600084815260200190815260200160002060009054906101000a900473ffffffffffffffffffffffffffffffffffffffff1673ffffffffffffffffffffffffffffffffffffffff1614159050919050565b600033905090565b816004600083815260200190815260200160002060006101000a81548173ffffffffffffffffffffffffffffffffffffffff021916908373ffffffffffffffffffffffffffffffffffffffff160217905550808273ffffffffffffffffffffffffffffffffffffffff16610ee983610736565b73ffffffffffffffffffffffffffffffffffffffff167f8c5be1e5ebec7d5bd14f71427d1e84f3dd0314c0f7b2291e5b200ac8c7c3b92560405160405180910390a45050565b6000610f3a82610e02565b610f79576040517f08c379a0000000000000000000000000000000000000000000000000000000008152600401610f709061242c565b60405180910390fd5b6000610f8483610736565b90508073ffffffffffffffffffffffffffffffffffffffff168473ffffffffffffffffffffffffffffffffffffffff161480610ff357508373ffffffffffffffffffffffffffffffffffffffff16610fdb84610508565b73ffffffffffffffffffffffffffffffffffffffff16145b8061100457506110038185610d04565b5b91505092915050565b8273ffffffffffffffffffffffffffffffffffffffff1661102d82610736565b73ffffffffffffffffffffffffffffffffffffffff1614611083576040517f08c379a000000000000000000000000000000000000000000000000000000000815260040161107a906123ac565b60405180910390fd5b600073ffffffffffffffffffffffffffffffffffffffff168273ffffffffffffffffffffffffffffffffffffffff1614156110f3576040517f08c379a00000000000000000000000000000000000000000000000000000000081526004016110ea906123ec565b60405180910390fd5b6110fe83838361176d565b611109600082610e76565b6001600360008573ffffffffffffffffffffffffffffffffffffffff1673ffffffffffffffffffffffffffffffffffffffff16815260200190815260200160002060008282546111599190612731565b925050819055506001600360008473ffffffffffffffffffffffffffffffffffffffff1673ffffffffffffffffffffffffffffffffffffffff16815260200190815260200160002060008282546111b091906126aa565b92505081905550816002600083815260200190815260200160002060006101000a81548173ffffffffffffffffffffffffffffffffffffffff021916908373ffffffffffffffffffffffffffffffffffffffff160217905550808273ffffffffffffffffffffffffffffffffffffffff168473ffffffffffffffffffffffffffffffffffffffff167fddf252ad1be2c89b69c2b068fc378daa952ba7f163c4a11628f55a4df523b3ef60405160405180910390a461126f838383611772565b505050565b600081600001549050919050565b8173ffffffffffffffffffffffffffffffffffffffff168373ffffffffffffffffffffffffffffffffffffffff1614156112f1576040517f08c379a00000000000000000000000000000000000000000000000000000000081526004016112e89061240c565b60405180910390fd5b80600560008573ffffffffffffffffffffffffffffffffffffffff1673ffffffffffffffffffffffffffffffffffffffff16815260200190815260200160002060008473ffffffffffffffffffffffffffffffffffffffff1673ffffffffffffffffffffffffffffffffffffffff16815260200190815260200160002060006101000a81548160ff0219169083151502179055508173ffffffffffffffffffffffffffffffffffffffff168373ffffffffffffffffffffffffffffffffffffffff167f17307eab39ab6107e8899845ad3d59bd9653f200f220920489ca2b5937696c31836040516113e2919061234f565b60405180910390a3505050565b6113fa84848461100d565b61140684848484611777565b611445576040517f08c379a000000000000000000000000000000000000000000000000000000000815260040161143c9061238c565b60405180910390fd5b50505050565b606060405180602001604052806000815250905090565b606061146d82610e02565b6114ac576040517f08c379a00000000000000000000000000000000000000000000000000000000081526004016114a39061252c565b60405180910390fd5b60006114b661144b565b905060008151116114d65760405180602001604052806000815250611501565b806114e08461190e565b6040516020016114f19291906122a2565b6040516020818303038152906040525b915050919050565b6001816000016000828254019250508190555050565b600073ffffffffffffffffffffffffffffffffffffffff168273ffffffffffffffffffffffffffffffffffffffff16141561158f576040517f08c379a0000000000000000000000000000000000000000000000000000000008152600401611586906124cc565b60405180910390fd5b61159881610e02565b156115d8576040517f08c379a00000000000000000000000000000000000000000000000000000000081526004016115cf906123cc565b60405180910390fd5b6115e46000838361176d565b6001600360008473ffffffffffffffffffffffffffffffffffffffff1673ffffffffffffffffffffffffffffffffffffffff168152602001908152602001600020600082825461163491906126aa565b92505081905550816002600083815260200190815260200160002060006101000a81548173ffffffffffffffffffffffffffffffffffffffff021916908373ffffffffffffffffffffffffffffffffffffffff160217905550808273ffffffffffffffffffffffffffffffffffffffff16600073ffffffffffffffffffffffffffffffffffffffff167fddf252ad1be2c89b69c2b068fc378daa952ba7f163c4a11628f55a4df523b3ef60405160405180910390a46116f560008383611772565b5050565b61170282610e02565b611741576040517f08c379a0000000000000000000000000000000000000000000000000000000008152600401611738906124ac565b60405180910390fd5b80600660008481526020019081526020016000209080519060200190611768929190611ade565b505050565b505050565b505050565b60006117988473ffffffffffffffffffffffffffffffffffffffff16611abb565b15611901578373ffffffffffffffffffffffffffffffffffffffff1663150b7a026117c1610e6e565b8786866040518563ffffffff1660e01b81526004016117e394939291906122e1565b602060405180830381600087803b1580156117fd57600080fd5b505af192505050801561182e57506040513d601f19601f8201168201806040525081019061182b9190611e8a565b60015b6118b1573d806000811461185e576040519150601f19603f3d011682016040523d82523d6000602084013e611863565b606091505b506000815114156118a9576040517f08c379a00000000000000000000000000000000000000000000000000000000081526004016118a09061238c565b60405180910390fd5b805181602001fd5b63150b7a0260e01b7bffffffffffffffffffffffffffffffffffffffffffffffffffffffff1916817bffffffffffffffffffffffffffffffffffffffffffffffffffffffff191614915050611906565b600190505b949350505050565b60606000821415611956576040518060400160405280600181526020017f30000000000000000000000000000000000000000000000000000000000000008152509050611ab6565b600082905060005b600082146119885780806119719061287e565b915050600a826119819190612700565b915061195e565b60008167ffffffffffffffff8111156119ca577f4e487b7100000000000000000000000000000000000000000000000000000000600052604160045260246000fd5b6040519080825280601f01601f1916602001820160405280156119fc5781602001600182028036833780820191505090505b5090505b60008514611aaf57600182611a159190612731565b9150600a85611a2491906128c7565b6030611a3091906126aa565b60f81b818381518110611a6c577f4e487b7100000000000000000000000000000000000000000000000000000000600052603260045260246000fd5b60200101907effffffffffffffffffffffffffffffffffffffffffffffffffffffffffffff1916908160001a905350600a85611aa89190612700565b9450611a00565b8093505050505b919050565b6000808273ffffffffffffffffffffffffffffffffffffffff163b119050919050565b828054611aea9061281b565b90600052602060002090601f016020900481019282611b0c5760008555611b53565b82601f10611b2557805160ff1916838001178555611b53565b82800160010185558215611b53579182015b82811115611b52578251825591602001919060010190611b37565b5b509050611b609190611b64565b5090565b5b80821115611b7d576000816000905550600101611b65565b5090565b6000611b94611b8f846125cc565b6125a7565b905082815260208101848484011115611bac57600080fd5b611bb78482856127d9565b509392505050565b6000611bd2611bcd846125fd565b6125a7565b905082815260208101848484011115611bea57600080fd5b611bf58482856127d9565b509392505050565b600081359050611c0c81612e43565b92915050565b600081359050611c2181612e5a565b92915050565b600081359050611c3681612e71565b92915050565b600081519050611c4b81612e71565b92915050565b600082601f830112611c6257600080fd5b8135611c72848260208601611b81565b91505092915050565b600082601f830112611c8c57600080fd5b8135611c9c848260208601611bbf565b91505092915050565b600081359050611cb481612e88565b92915050565b600060208284031215611ccc57600080fd5b6000611cda84828501611bfd565b91505092915050565b60008060408385031215611cf657600080fd5b6000611d0485828601611bfd565b9250506020611d1585828601611bfd565b9150509250929050565b600080600060608486031215611d3457600080fd5b6000611d4286828701611bfd565b9350506020611d5386828701611bfd565b9250506040611d6486828701611ca5565b9150509250925092565b60008060008060808587031215611d8457600080fd5b6000611d9287828801611bfd565b9450506020611da387828801611bfd565b9350506040611db487828801611ca5565b925050606085013567ffffffffffffffff811115611dd157600080fd5b611ddd87828801611c51565b91505092959194509250565b60008060408385031215611dfc57600080fd5b6000611e0a85828601611bfd565b9250506020611e1b85828601611c12565b9150509250929050565b60008060408385031215611e3857600080fd5b6000611e4685828601611bfd565b9250506020611e5785828601611ca5565b9150509250929050565b600060208284031215611e7357600080fd5b6000611e8184828501611c27565b91505092915050565b600060208284031215611e9c57600080fd5b6000611eaa84828501611c3c565b91505092915050565b600060208284031215611ec557600080fd5b600082013567ffffffffffffffff811115611edf57600080fd5b611eeb84828501611c7b565b91505092915050565b600060208284031215611f0657600080fd5b6000611f1484828501611ca5565b91505092915050565b6000611f298383612284565b60208301905092915050565b611f3e81612765565b82525050565b6000611f4f8261263e565b611f59818561266c565b9350611f648361262e565b8060005b83811015611f95578151611f7c8882611f1d565b9750611f878361265f565b925050600181019050611f68565b5085935050505092915050565b611fab81612777565b82525050565b6000611fbc82612649565b611fc6818561267d565b9350611fd68185602086016127e8565b611fdf816129b4565b840191505092915050565b6000611ff582612654565b611fff818561268e565b935061200f8185602086016127e8565b612018816129b4565b840191505092915050565b600061202e82612654565b612038818561269f565b93506120488185602086016127e8565b80840191505092915050565b600061206160328361268e565b915061206c826129c5565b604082019050919050565b600061208460258361268e565b915061208f82612a14565b604082019050919050565b60006120a7601c8361268e565b91506120b282612a63565b602082019050919050565b60006120ca60248361268e565b91506120d582612a8c565b604082019050919050565b60006120ed60198361268e565b91506120f882612adb565b602082019050919050565b6000612110602c8361268e565b915061211b82612b04565b604082019050919050565b600061213360388361268e565b915061213e82612b53565b604082019050919050565b6000612156602a8361268e565b915061216182612ba2565b604082019050919050565b600061217960298361268e565b915061218482612bf1565b604082019050919050565b600061219c602e8361268e565b91506121a782612c40565b604082019050919050565b60006121bf60208361268e565b91506121ca82612c8f565b602082019050919050565b60006121e260318361268e565b91506121ed82612cb8565b604082019050919050565b6000612205602c8361268e565b915061221082612d07565b604082019050919050565b6000612228602f8361268e565b915061223382612d56565b604082019050919050565b600061224b60218361268e565b915061225682612da5565b604082019050919050565b600061226e60318361268e565b915061227982612df4565b604082019050919050565b61228d816127cf565b82525050565b61229c816127cf565b82525050565b60006122ae8285612023565b91506122ba8284612023565b91508190509392505050565b60006020820190506122db6000830184611f35565b92915050565b60006080820190506122f66000830187611f35565b6123036020830186611f35565b6123106040830185612293565b81810360608301526123228184611fb1565b905095945050505050565b600060208201905081810360008301526123478184611f44565b905092915050565b60006020820190506123646000830184611fa2565b92915050565b600060208201905081810360008301526123848184611fea565b905092915050565b600060208201905081810360008301526123a581612054565b9050919050565b600060208201905081810360008301526123c581612077565b9050919050565b600060208201905081810360008301526123e58161209a565b9050919050565b60006020820190508181036000830152612405816120bd565b9050919050565b60006020820190508181036000830152612425816120e0565b9050919050565b6000602082019050818103600083015261244581612103565b9050919050565b6000602082019050818103600083015261246581612126565b9050919050565b6000602082019050818103600083015261248581612149565b9050919050565b600060208201905081810360008301526124a58161216c565b9050919050565b600060208201905081810360008301526124c58161218f565b9050919050565b600060208201905081810360008301526124e5816121b2565b9050919050565b60006020820190508181036000830152612505816121d5565b9050919050565b60006020820190508181036000830152612525816121f8565b9050919050565b600060208201905081810360008301526125458161221b565b9050919050565b600060208201905081810360008301526125658161223e565b9050919050565b6000602082019050818103600083015261258581612261565b9050919050565b60006020820190506125a16000830184612293565b92915050565b60006125b16125c2565b90506125bd828261284d565b919050565b6000604051905090565b600067ffffffffffffffff8211156125e7576125e6612985565b5b6125f0826129b4565b9050602081019050919050565b600067ffffffffffffffff82111561261857612617612985565b5b612621826129b4565b9050602081019050919050565b6000819050602082019050919050565b600081519050919050565b600081519050919050565b600081519050919050565b6000602082019050919050565b600082825260208201905092915050565b600082825260208201905092915050565b600082825260208201905092915050565b600081905092915050565b60006126b5826127cf565b91506126c0836127cf565b9250827fffffffffffffffffffffffffffffffffffffffffffffffffffffffffffffffff038211156126f5576126f46128f8565b5b828201905092915050565b600061270b826127cf565b9150612716836127cf565b92508261272657612725612927565b5b828204905092915050565b600061273c826127cf565b9150612747836127cf565b92508282101561275a576127596128f8565b5b828203905092915050565b6000612770826127af565b9050919050565b60008115159050919050565b60007fffffffff0000000000000000000000000000000000000000000000000000000082169050919050565b600073ffffffffffffffffffffffffffffffffffffffff82169050919050565b6000819050919050565b82818337600083830152505050565b60005b838110156128065780820151818401526020810190506127eb565b83811115612815576000848401525b50505050565b6000600282049050600182168061283357607f821691505b6020821081141561284757612846612956565b5b50919050565b612856826129b4565b810181811067ffffffffffffffff8211171561287557612874612985565b5b80604052505050565b6000612889826127cf565b91507fffffffffffffffffffffffffffffffffffffffffffffffffffffffffffffffff8214156128bc576128bb6128f8565b5b600182019050919050565b60006128d2826127cf565b91506128dd836127cf565b9250826128ed576128ec612927565b5b828206905092915050565b7f4e487b7100000000000000000000000000000000000000000000000000000000600052601160045260246000fd5b7f4e487b7100000000000000000000000000000000000000000000000000000000600052601260045260246000fd5b7f4e487b7100000000000000000000000000000000000000000000000000000000600052602260045260246000fd5b7f4e487b7100000000000000000000000000000000000000000000000000000000600052604160045260246000fd5b6000601f19601f8301169050919050565b7f4552433732313a207472616e7366657220746f206e6f6e20455243373231526560008201527f63656976657220696d706c656d656e7465720000000000000000000000000000602082015250565b7f4552433732313a207472616e736665722066726f6d20696e636f72726563742060008201527f6f776e6572000000000000000000000000000000000000000000000000000000602082015250565b7f4552433732313a20746f6b656e20616c7265616479206d696e74656400000000600082015250565b7f4552433732313a207472616e7366657220746f20746865207a65726f2061646460008201527f7265737300000000000000000000000000000000000000000000000000000000602082015250565b7f4552433732313a20617070726f766520746f2063616c6c657200000000000000600082015250565b7f4552433732313a206f70657261746f7220717565727920666f72206e6f6e657860008201527f697374656e7420746f6b656e0000000000000000000000000000000000000000602082015250565b7f4552433732313a20617070726f76652063616c6c6572206973206e6f74206f7760008201527f6e6572206e6f7220617070726f76656420666f7220616c6c0000000000000000602082015250565b7f4552433732313a2062616c616e636520717565727920666f7220746865207a6560008201527f726f206164647265737300000000000000000000000000000000000000000000602082015250565b7f4552433732313a206f776e657220717565727920666f72206e6f6e657869737460008201527f656e7420746f6b656e0000000000000000000000000000000000000000000000602082015250565b7f45524337323155524953746f726167653a2055524920736574206f66206e6f6e60008201527f6578697374656e7420746f6b656e000000000000000000000000000000000000602082015250565b7f4552433732313a206d696e7420746f20746865207a65726f2061646472657373600082015250565b7f45524337323155524953746f726167653a2055524920717565727920666f722060008201527f6e6f6e6578697374656e7420746f6b656e000000000000000000000000000000602082015250565b7f4552433732313a20617070726f76656420717565727920666f72206e6f6e657860008201527f697374656e7420746f6b656e0000000000000000000000000000000000000000602082015250565b7f4552433732314d657461646174613a2055524920717565727920666f72206e6f60008201527f6e6578697374656e7420746f6b656e0000000000000000000000000000000000602082015250565b7f4552433732313a20617070726f76616c20746f2063757272656e74206f776e6560008201527f7200000000000000000000000000000000000000000000000000000000000000602082015250565b7f4552433732313a207472616e736665722063616c6c6572206973206e6f74206f60008201527f776e6572206e6f7220617070726f766564000000000000000000000000000000602082015250565b612e4c81612765565b8114612e5757600080fd5b50565b612e6381612777565b8114612e6e57600080fd5b50565b612e7a81612783565b8114612e8557600080fd5b50565b612e91816127cf565b8114612e9c57600080fd5b5056fea2646970667358221220ed1d405e7992b6fa1746e849a49b080f587c7e384581ee7897b6fd4c023c4b3d64736f6c63430008040033",
  "linkReferences": {},
  "deployedLinkReferences": {}
}